{
  "_format": "hh-sol-artifact-1",
  "contractName": "Domains",
  "sourceName": "contracts/Domains.sol",
  "abi": [
    {
      "inputs": [
        {
          "internalType": "string",
          "name": "_tld",
          "type": "string"
        }
      ],
      "stateMutability": "payable",
      "type": "constructor"
    },
    {
      "inputs": [],
      "name": "AlreadyRegistered",
      "type": "error"
    },
    {
      "inputs": [
        {
          "internalType": "string",
          "name": "name",
          "type": "string"
        }
      ],
      "name": "InvalidName",
      "type": "error"
    },
    {
      "inputs": [],
      "name": "Unauthorized",
      "type": "error"
    },
    {
      "anonymous": false,
      "inputs": [
        {
          "indexed": true,
          "internalType": "address",
          "name": "owner",
          "type": "address"
        },
        {
          "indexed": true,
          "internalType": "address",
          "name": "approved",
          "type": "address"
        },
        {
          "indexed": true,
          "internalType": "uint256",
          "name": "tokenId",
          "type": "uint256"
        }
      ],
      "name": "Approval",
      "type": "event"
    },
    {
      "anonymous": false,
      "inputs": [
        {
          "indexed": true,
          "internalType": "address",
          "name": "owner",
          "type": "address"
        },
        {
          "indexed": true,
          "internalType": "address",
          "name": "operator",
          "type": "address"
        },
        {
          "indexed": false,
          "internalType": "bool",
          "name": "approved",
          "type": "bool"
        }
      ],
      "name": "ApprovalForAll",
      "type": "event"
    },
    {
      "anonymous": false,
      "inputs": [
        {
          "indexed": true,
          "internalType": "address",
          "name": "from",
          "type": "address"
        },
        {
          "indexed": true,
          "internalType": "address",
          "name": "to",
          "type": "address"
        },
        {
          "indexed": true,
          "internalType": "uint256",
          "name": "tokenId",
          "type": "uint256"
        }
      ],
      "name": "Transfer",
      "type": "event"
    },
    {
      "inputs": [
        {
          "internalType": "address",
          "name": "to",
          "type": "address"
        },
        {
          "internalType": "uint256",
          "name": "tokenId",
          "type": "uint256"
        }
      ],
      "name": "approve",
      "outputs": [],
      "stateMutability": "nonpayable",
      "type": "function"
    },
    {
      "inputs": [
        {
          "internalType": "address",
          "name": "owner",
          "type": "address"
        }
      ],
      "name": "balanceOf",
      "outputs": [
        {
          "internalType": "uint256",
          "name": "",
          "type": "uint256"
        }
      ],
      "stateMutability": "view",
      "type": "function"
    },
    {
      "inputs": [
        {
          "internalType": "string",
          "name": "",
          "type": "string"
        }
      ],
      "name": "domains",
      "outputs": [
        {
          "internalType": "address",
          "name": "",
          "type": "address"
        }
      ],
      "stateMutability": "view",
      "type": "function"
    },
    {
      "inputs": [
        {
          "internalType": "string",
          "name": "name",
          "type": "string"
        }
      ],
      "name": "getAddress",
      "outputs": [
        {
          "internalType": "address",
          "name": "",
          "type": "address"
        }
      ],
      "stateMutability": "view",
      "type": "function"
    },
    {
      "inputs": [],
      "name": "getAllNames",
      "outputs": [
        {
          "internalType": "string[]",
          "name": "",
          "type": "string[]"
        }
      ],
      "stateMutability": "view",
      "type": "function"
    },
    {
      "inputs": [
        {
          "internalType": "uint256",
          "name": "tokenId",
          "type": "uint256"
        }
      ],
      "name": "getApproved",
      "outputs": [
        {
          "internalType": "address",
          "name": "",
          "type": "address"
        }
      ],
      "stateMutability": "view",
      "type": "function"
    },
    {
      "inputs": [
        {
          "internalType": "string",
          "name": "name",
          "type": "string"
        }
      ],
      "name": "getRecord",
      "outputs": [
        {
          "internalType": "string",
          "name": "",
          "type": "string"
        }
      ],
      "stateMutability": "view",
      "type": "function"
    },
    {
      "inputs": [
        {
          "internalType": "address",
          "name": "owner",
          "type": "address"
        },
        {
          "internalType": "address",
          "name": "operator",
          "type": "address"
        }
      ],
      "name": "isApprovedForAll",
      "outputs": [
        {
          "internalType": "bool",
          "name": "",
          "type": "bool"
        }
      ],
      "stateMutability": "view",
      "type": "function"
    },
    {
      "inputs": [],
      "name": "isOwner",
      "outputs": [
        {
          "internalType": "bool",
          "name": "",
          "type": "bool"
        }
      ],
      "stateMutability": "view",
      "type": "function"
    },
    {
      "inputs": [],
      "name": "name",
      "outputs": [
        {
          "internalType": "string",
          "name": "",
          "type": "string"
        }
      ],
      "stateMutability": "view",
      "type": "function"
    },
    {
      "inputs": [
        {
          "internalType": "uint256",
          "name": "",
          "type": "uint256"
        }
      ],
      "name": "names",
      "outputs": [
        {
          "internalType": "string",
          "name": "",
          "type": "string"
        }
      ],
      "stateMutability": "view",
      "type": "function"
    },
    {
      "inputs": [],
      "name": "owner",
      "outputs": [
        {
          "internalType": "address payable",
          "name": "",
          "type": "address"
        }
      ],
      "stateMutability": "view",
      "type": "function"
    },
    {
      "inputs": [
        {
          "internalType": "uint256",
          "name": "tokenId",
          "type": "uint256"
        }
      ],
      "name": "ownerOf",
      "outputs": [
        {
          "internalType": "address",
          "name": "",
          "type": "address"
        }
      ],
      "stateMutability": "view",
      "type": "function"
    },
    {
      "inputs": [
        {
          "internalType": "string",
          "name": "name",
          "type": "string"
        }
      ],
      "name": "price",
      "outputs": [
        {
          "internalType": "uint256",
          "name": "",
          "type": "uint256"
        }
      ],
      "stateMutability": "pure",
      "type": "function"
    },
    {
      "inputs": [
        {
          "internalType": "string",
          "name": "",
          "type": "string"
        }
      ],
      "name": "records",
      "outputs": [
        {
          "internalType": "string",
          "name": "",
          "type": "string"
        }
      ],
      "stateMutability": "view",
      "type": "function"
    },
    {
      "inputs": [
        {
          "internalType": "string",
          "name": "name",
          "type": "string"
        }
      ],
      "name": "register",
      "outputs": [],
      "stateMutability": "payable",
      "type": "function"
    },
    {
      "inputs": [
        {
          "internalType": "address",
          "name": "from",
          "type": "address"
        },
        {
          "internalType": "address",
          "name": "to",
          "type": "address"
        },
        {
          "internalType": "uint256",
          "name": "tokenId",
          "type": "uint256"
        }
      ],
      "name": "safeTransferFrom",
      "outputs": [],
      "stateMutability": "nonpayable",
      "type": "function"
    },
    {
      "inputs": [
        {
          "internalType": "address",
          "name": "from",
          "type": "address"
        },
        {
          "internalType": "address",
          "name": "to",
          "type": "address"
        },
        {
          "internalType": "uint256",
          "name": "tokenId",
          "type": "uint256"
        },
        {
          "internalType": "bytes",
          "name": "_data",
          "type": "bytes"
        }
      ],
      "name": "safeTransferFrom",
      "outputs": [],
      "stateMutability": "nonpayable",
      "type": "function"
    },
    {
      "inputs": [
        {
          "internalType": "address",
          "name": "operator",
          "type": "address"
        },
        {
          "internalType": "bool",
          "name": "approved",
          "type": "bool"
        }
      ],
      "name": "setApprovalForAll",
      "outputs": [],
      "stateMutability": "nonpayable",
      "type": "function"
    },
    {
      "inputs": [
        {
          "internalType": "string",
          "name": "name",
          "type": "string"
        },
        {
          "internalType": "string",
          "name": "record",
          "type": "string"
        }
      ],
      "name": "setRecord",
      "outputs": [],
      "stateMutability": "nonpayable",
      "type": "function"
    },
    {
      "inputs": [
        {
          "internalType": "bytes4",
          "name": "interfaceId",
          "type": "bytes4"
        }
      ],
      "name": "supportsInterface",
      "outputs": [
        {
          "internalType": "bool",
          "name": "",
          "type": "bool"
        }
      ],
      "stateMutability": "view",
      "type": "function"
    },
    {
      "inputs": [],
      "name": "symbol",
      "outputs": [
        {
          "internalType": "string",
          "name": "",
          "type": "string"
        }
      ],
      "stateMutability": "view",
      "type": "function"
    },
    {
      "inputs": [],
      "name": "tld",
      "outputs": [
        {
          "internalType": "string",
          "name": "",
          "type": "string"
        }
      ],
      "stateMutability": "view",
      "type": "function"
    },
    {
      "inputs": [
        {
          "internalType": "uint256",
          "name": "tokenId",
          "type": "uint256"
        }
      ],
      "name": "tokenURI",
      "outputs": [
        {
          "internalType": "string",
          "name": "",
          "type": "string"
        }
      ],
      "stateMutability": "view",
      "type": "function"
    },
    {
      "inputs": [
        {
          "internalType": "address",
          "name": "from",
          "type": "address"
        },
        {
          "internalType": "address",
          "name": "to",
          "type": "address"
        },
        {
          "internalType": "uint256",
          "name": "tokenId",
          "type": "uint256"
        }
      ],
      "name": "transferFrom",
      "outputs": [],
      "stateMutability": "nonpayable",
      "type": "function"
    },
    {
      "inputs": [
        {
          "internalType": "string",
          "name": "name",
          "type": "string"
        }
      ],
      "name": "valid",
      "outputs": [
        {
          "internalType": "bool",
          "name": "",
          "type": "bool"
        }
      ],
      "stateMutability": "pure",
      "type": "function"
    },
    {
      "inputs": [],
      "name": "withdraw",
      "outputs": [],
      "stateMutability": "nonpayable",
      "type": "function"
    }
  ],
  "bytecode": "0x6080604052604051806108a0016040528061086b8152602001620054e361086b9139600b908051906020019062000038929190620002c8565b506040518060400160405280600d81526020017f3c2f746578743e3c2f7376673e00000000000000000000000000000000000000815250600c908051906020019062000086929190620002c8565b5060405162005d4e38038062005d4e8339818101604052810190620000ac919062000515565b6040518060400160405280601481526020017f5368696e6f6269204e616d6520536572766963650000000000000000000000008152506040518060400160405280600381526020017f534e530000000000000000000000000000000000000000000000000000000000815250816000908051906020019062000130929190620002c8565b50806001908051906020019062000149929190620002c8565b50505033600860006101000a81548173ffffffffffffffffffffffffffffffffffffffff021916908373ffffffffffffffffffffffffffffffffffffffff1602179055508060079080519060200190620001a5929190620002c8565b50620001f26040518060400160405280601881526020017f2573206e616d652073657276696365206465706c6f796564000000000000000081525082620001f960201b62001c111760201c565b5062000663565b6200029b828260405160240162000212929190620005c3565b6040516020818303038152906040527f4b5c4277000000000000000000000000000000000000000000000000000000007bffffffffffffffffffffffffffffffffffffffffffffffffffffffff19166020820180517bffffffffffffffffffffffffffffffffffffffffffffffffffffffff83818316178352505050506200029f60201b60201c565b5050565b60008151905060006a636f6e736f6c652e6c6f679050602083016000808483855afa5050505050565b828054620002d6906200062d565b90600052602060002090601f016020900481019282620002fa576000855562000346565b82601f106200031557805160ff191683800117855562000346565b8280016001018555821562000346579182015b828111156200034557825182559160200191906001019062000328565b5b50905062000355919062000359565b5090565b5b80821115620003745760008160009055506001016200035a565b5090565b6000604051905090565b600080fd5b600080fd5b600080fd5b600080fd5b6000601f19601f8301169050919050565b7f4e487b7100000000000000000000000000000000000000000000000000000000600052604160045260246000fd5b620003e18262000396565b810181811067ffffffffffffffff82111715620004035762000402620003a7565b5b80604052505050565b60006200041862000378565b9050620004268282620003d6565b919050565b600067ffffffffffffffff821115620004495762000448620003a7565b5b620004548262000396565b9050602081019050919050565b60005b838110156200048157808201518184015260208101905062000464565b8381111562000491576000848401525b50505050565b6000620004ae620004a8846200042b565b6200040c565b905082815260208101848484011115620004cd57620004cc62000391565b5b620004da84828562000461565b509392505050565b600082601f830112620004fa57620004f96200038c565b5b81516200050c84826020860162000497565b91505092915050565b6000602082840312156200052e576200052d62000382565b5b600082015167ffffffffffffffff8111156200054f576200054e62000387565b5b6200055d84828501620004e2565b91505092915050565b600081519050919050565b600082825260208201905092915050565b60006200058f8262000566565b6200059b818562000571565b9350620005ad81856020860162000461565b620005b88162000396565b840191505092915050565b60006040820190508181036000830152620005df818562000582565b90508181036020830152620005f5818462000582565b90509392505050565b7f4e487b7100000000000000000000000000000000000000000000000000000000600052602260045260246000fd5b600060028204905060018216806200064657607f821691505b602082108114156200065d576200065c620005fe565b5b50919050565b614e7080620006736000396000f3fe60806040526004361061019c5760003560e01c806370a08231116100ec578063bf40fac11161008a578063e985e9c511610064578063e985e9c514610624578063f2c298be14610661578063fb825e5f1461067d578063fe2c6198146106a85761019c565b8063bf40fac114610581578063c1880a98146105be578063c87b56dd146105e75761019c565b806395d89b41116100c657806395d89b41146104c75780639791c097146104f2578063a22cb4651461052f578063b88d4fde146105585761019c565b806370a08231146104345780638da5cb5b146104715780638f32d59b1461049c5761019c565b8063264492351161015957806342842e0e1161013357806342842e0e146103545780634622ab031461037d578063541e771d146103ba5780636352211e146103f75761019c565b806326449235146102d55780632d551432146103125780633ccfd60b1461033d5761019c565b806301ffc9a7146101a157806306fdde03146101de578063081812fc14610209578063095ea7b31461024657806311dd88451461026f57806323b872dd146102ac575b600080fd5b3480156101ad57600080fd5b506101c860048036038101906101c39190613192565b6106e5565b6040516101d591906131da565b60405180910390f35b3480156101ea57600080fd5b506101f36107c7565b604051610200919061328e565b60405180910390f35b34801561021557600080fd5b50610230600480360381019061022b91906132e6565b610859565b60405161023d9190613354565b60405180910390f35b34801561025257600080fd5b5061026d6004803603810190610268919061339b565b6108de565b005b34801561027b57600080fd5b5061029660048036038101906102919190613440565b6109f6565b6040516102a3919061328e565b60405180910390f35b3480156102b857600080fd5b506102d360048036038101906102ce919061348d565b610aa9565b005b3480156102e157600080fd5b506102fc60048036038101906102f79190613610565b610b09565b6040516103099190613354565b60405180910390f35b34801561031e57600080fd5b50610327610b52565b604051610334919061328e565b60405180910390f35b34801561034957600080fd5b50610352610be0565b005b34801561036057600080fd5b5061037b6004803603810190610376919061348d565b610ca6565b005b34801561038957600080fd5b506103a4600480360381019061039f91906132e6565b610cc6565b6040516103b1919061328e565b60405180910390f35b3480156103c657600080fd5b506103e160048036038101906103dc9190613610565b610d66565b6040516103ee919061328e565b60405180910390f35b34801561040357600080fd5b5061041e600480360381019061041991906132e6565b610e1c565b60405161042b9190613354565b60405180910390f35b34801561044057600080fd5b5061045b60048036038101906104569190613659565b610ece565b6040516104689190613695565b60405180910390f35b34801561047d57600080fd5b50610486610f86565b60405161049391906136d1565b60405180910390f35b3480156104a857600080fd5b506104b1610fac565b6040516104be91906131da565b60405180910390f35b3480156104d357600080fd5b506104dc611004565b6040516104e9919061328e565b60405180910390f35b3480156104fe57600080fd5b5061051960048036038101906105149190613440565b611096565b60405161052691906131da565b60405180910390f35b34801561053b57600080fd5b5061055660048036038101906105519190613718565b61114a565b005b34801561056457600080fd5b5061057f600480360381019061057a91906137f9565b611160565b005b34801561058d57600080fd5b506105a860048036038101906105a39190613440565b6111c2565b6040516105b59190613354565b60405180910390f35b3480156105ca57600080fd5b506105e560048036038101906105e0919061387c565b61120d565b005b3480156105f357600080fd5b5061060e600480360381019061060991906132e6565b6112e8565b60405161061b919061328e565b60405180910390f35b34801561063057600080fd5b5061064b600480360381019061064691906138fd565b61143a565b60405161065891906131da565b60405180910390f35b61067b60048036038101906106769190613440565b6114ce565b005b34801561068957600080fd5b5061069261198d565b60405161069f9190613a49565b60405180910390f35b3480156106b457600080fd5b506106cf60048036038101906106ca9190613440565b611b6b565b6040516106dc9190613695565b60405180910390f35b60007f80ac58cd000000000000000000000000000000000000000000000000000000007bffffffffffffffffffffffffffffffffffffffffffffffffffffffff1916827bffffffffffffffffffffffffffffffffffffffffffffffffffffffff191614806107b057507f5b5e139f000000000000000000000000000000000000000000000000000000007bffffffffffffffffffffffffffffffffffffffffffffffffffffffff1916827bffffffffffffffffffffffffffffffffffffffffffffffffffffffff1916145b806107c057506107bf82611cad565b5b9050919050565b6060600080546107d690613a9a565b80601f016020809104026020016040519081016040528092919081815260200182805461080290613a9a565b801561084f5780601f106108245761010080835404028352916020019161084f565b820191906000526020600020905b81548152906001019060200180831161083257829003601f168201915b5050505050905090565b600061086482611d17565b6108a3576040517f08c379a000000000000000000000000000000000000000000000000000000000815260040161089a90613b3e565b60405180910390fd5b6004600083815260200190815260200160002060009054906101000a900473ffffffffffffffffffffffffffffffffffffffff169050919050565b60006108e982610e1c565b90508073ffffffffffffffffffffffffffffffffffffffff168373ffffffffffffffffffffffffffffffffffffffff16141561095a576040517f08c379a000000000000000000000000000000000000000000000000000000000815260040161095190613bd0565b60405180910390fd5b8073ffffffffffffffffffffffffffffffffffffffff16610979611d83565b73ffffffffffffffffffffffffffffffffffffffff1614806109a857506109a7816109a2611d83565b61143a565b5b6109e7576040517f08c379a00000000000000000000000000000000000000000000000000000000081526004016109de90613c62565b60405180910390fd5b6109f18383611d8b565b505050565b6060600e8383604051610a0a929190613cb2565b90815260200160405180910390208054610a2390613a9a565b80601f0160208091040260200160405190810160405280929190818152602001828054610a4f90613a9a565b8015610a9c5780601f10610a7157610100808354040283529160200191610a9c565b820191906000526020600020905b815481529060010190602001808311610a7f57829003601f168201915b5050505050905092915050565b610aba610ab4611d83565b82611e44565b610af9576040517f08c379a0000000000000000000000000000000000000000000000000000000008152600401610af090613d3d565b60405180910390fd5b610b04838383611f22565b505050565b600d818051602081018201805184825260208301602085012081835280955050505050506000915054906101000a900473ffffffffffffffffffffffffffffffffffffffff1681565b60078054610b5f90613a9a565b80601f0160208091040260200160405190810160405280929190818152602001828054610b8b90613a9a565b8015610bd85780601f10610bad57610100808354040283529160200191610bd8565b820191906000526020600020905b815481529060010190602001808311610bbb57829003601f168201915b505050505081565b610be8610fac565b610bf157600080fd5b600047905060003373ffffffffffffffffffffffffffffffffffffffff1682604051610c1c90613d8e565b60006040518083038185875af1925050503d8060008114610c59576040519150601f19603f3d011682016040523d82523d6000602084013e610c5e565b606091505b5050905080610ca2576040517f08c379a0000000000000000000000000000000000000000000000000000000008152600401610c9990613def565b60405180910390fd5b5050565b610cc183838360405180602001604052806000815250611160565b505050565b60096020528060005260406000206000915090508054610ce590613a9a565b80601f0160208091040260200160405190810160405280929190818152602001828054610d1190613a9a565b8015610d5e5780601f10610d3357610100808354040283529160200191610d5e565b820191906000526020600020905b815481529060010190602001808311610d4157829003601f168201915b505050505081565b600e818051602081018201805184825260208301602085012081835280955050505050506000915090508054610d9b90613a9a565b80601f0160208091040260200160405190810160405280929190818152602001828054610dc790613a9a565b8015610e145780601f10610de957610100808354040283529160200191610e14565b820191906000526020600020905b815481529060010190602001808311610df757829003601f168201915b505050505081565b6000806002600084815260200190815260200160002060009054906101000a900473ffffffffffffffffffffffffffffffffffffffff169050600073ffffffffffffffffffffffffffffffffffffffff168173ffffffffffffffffffffffffffffffffffffffff161415610ec5576040517f08c379a0000000000000000000000000000000000000000000000000000000008152600401610ebc90613e81565b60405180910390fd5b80915050919050565b60008073ffffffffffffffffffffffffffffffffffffffff168273ffffffffffffffffffffffffffffffffffffffff161415610f3f576040517f08c379a0000000000000000000000000000000000000000000000000000000008152600401610f3690613f13565b60405180910390fd5b600360008373ffffffffffffffffffffffffffffffffffffffff1673ffffffffffffffffffffffffffffffffffffffff168152602001908152602001600020549050919050565b600860009054906101000a900473ffffffffffffffffffffffffffffffffffffffff1681565b6000600860009054906101000a900473ffffffffffffffffffffffffffffffffffffffff1673ffffffffffffffffffffffffffffffffffffffff163373ffffffffffffffffffffffffffffffffffffffff1614905090565b60606001805461101390613a9a565b80601f016020809104026020016040519081016040528092919081815260200182805461103f90613a9a565b801561108c5780601f106110615761010080835404028352916020019161108c565b820191906000526020600020905b81548152906001019060200180831161106f57829003601f168201915b5050505050905090565b600060036110e784848080601f016020809104026020016040519081016040528093929190818152602001838380828437600081840152601f19601f82011690508083019250505050505050612189565b101580156111425750600a61113f84848080601f016020809104026020016040519081016040528093929190818152602001838380828437600081840152601f19601f82011690508083019250505050505050612189565b11155b905092915050565b61115c611155611d83565b838361233e565b5050565b61117161116b611d83565b83611e44565b6111b0576040517f08c379a00000000000000000000000000000000000000000000000000000000081526004016111a790613d3d565b60405180910390fd5b6111bc848484846124ab565b50505050565b6000600d83836040516111d6929190613cb2565b908152602001604051809103902060009054906101000a900473ffffffffffffffffffffffffffffffffffffffff16905092915050565b3373ffffffffffffffffffffffffffffffffffffffff16600d8585604051611236929190613cb2565b908152602001604051809103902060009054906101000a900473ffffffffffffffffffffffffffffffffffffffff1673ffffffffffffffffffffffffffffffffffffffff16146112b2576040517f82b4290000000000000000000000000000000000000000000000000000000000815260040160405180910390fd5b8181600e86866040516112c6929190613cb2565b908152602001604051809103902091906112e1929190612ffd565b5050505050565b60606112f382611d17565b611332576040517f08c379a000000000000000000000000000000000000000000000000000000000815260040161132990613fa5565b60405180910390fd5b600060066000848152602001908152602001600020805461135290613a9a565b80601f016020809104026020016040519081016040528092919081815260200182805461137e90613a9a565b80156113cb5780601f106113a0576101008083540402835291602001916113cb565b820191906000526020600020905b8154815290600101906020018083116113ae57829003601f168201915b5050505050905060006113dc612507565b90506000815114156113f2578192505050611435565b60008251111561142757808260405160200161140f929190613ff6565b60405160208183030381529060405292505050611435565b6114308461251e565b925050505b919050565b6000600560008473ffffffffffffffffffffffffffffffffffffffff1673ffffffffffffffffffffffffffffffffffffffff16815260200190815260200160002060008373ffffffffffffffffffffffffffffffffffffffff1673ffffffffffffffffffffffffffffffffffffffff16815260200190815260200160002060009054906101000a900460ff16905092915050565b600073ffffffffffffffffffffffffffffffffffffffff16600d83836040516114f8929190613cb2565b908152602001604051809103902060009054906101000a900473ffffffffffffffffffffffffffffffffffffffff1673ffffffffffffffffffffffffffffffffffffffff1614611574576040517f3a81d6fc00000000000000000000000000000000000000000000000000000000815260040160405180910390fd5b60003073ffffffffffffffffffffffffffffffffffffffff1663fe2c619884846040518363ffffffff1660e01b81526004016115b1929190614047565b602060405180830381865afa1580156115ce573d6000803e3d6000fd5b505050506040513d601f19601f820116820180604052508101906115f29190614080565b905080341015611637576040517f08c379a000000000000000000000000000000000000000000000000000000000815260040161162e906140f9565b60405180910390fd5b60008383600760405160200161164f939291906141f9565b60405160208183030381529060405290506000600b82600c6040516020016116799392919061422a565b60405160208183030381529060405290506000611696600a6125c5565b905060006116e787878080601f016020809104026020016040519081016040528093929190818152602001838380828437600081840152601f19601f82011690508083019250505050505050612189565b905060006116f4826125d3565b90506117e8604051806060016040528060318152602001614d916031913989898080601f016020809104026020016040519081016040528093929190818152602001838380828437600081840152601f19601f820116905080830192505050505050506007805461176490613a9a565b80601f016020809104026020016040519081016040528092919081815260200182805461179090613a9a565b80156117dd5780601f106117b2576101008083540402835291602001916117dd565b820191906000526020600020905b8154815290600101906020018083116117c057829003601f168201915b505050505086612734565b600061181e866117f7876127d6565b8460405160200161180a939291906143d7565b6040516020818303038152906040526127d6565b90506000816040516020016118339190614480565b6040516020818303038152906040529050611865604051806060016040528060398152602001614d586039913961296e565b6118a46040518060400160405280600e81526020017f46696e616c20746f6b656e55524900000000000000000000000000000000000081525082611c11565b6118c5604051806060016040528060398152602001614dc26039913961296e565b6118cf3386612a07565b6118d98582612a25565b33600d8b8b6040516118ec929190613cb2565b908152602001604051809103902060006101000a81548173ffffffffffffffffffffffffffffffffffffffff021916908373ffffffffffffffffffffffffffffffffffffffff1602179055506119776040518060400160405280601b81526020017f2573206861732072656769737465726564206120646f6d61696e21000000000081525033612a99565b611981600a612b35565b50505050505050505050565b60606119cd6040518060400160405280601f81526020017f47657474696e6720616c6c206e616d65732066726f6d20636f6e74726163740081525061296e565b60006119d9600a6125c5565b67ffffffffffffffff8111156119f2576119f16134e5565b5b604051908082528060200260200182016040528015611a2557816020015b6060815260200190600190039081611a105790505b50905060005b611a35600a6125c5565b811015611b6357600960008281526020019081526020016000208054611a5a90613a9a565b80601f0160208091040260200160405190810160405280929190818152602001828054611a8690613a9a565b8015611ad35780601f10611aa857610100808354040283529160200191611ad3565b820191906000526020600020905b815481529060010190602001808311611ab657829003601f168201915b5050505050828281518110611aeb57611aea6144a2565b5b6020026020010181905250611b506040518060400160405280601781526020017f4e616d6520666f7220746f6b656e20256420697320257300000000000000000081525082848481518110611b4357611b426144a2565b5b6020026020010151612b4b565b8080611b5b90614500565b915050611a2b565b508091505090565b600080611bbb84848080601f016020809104026020016040519081016040528093929190818152602001838380828437600081840152601f19601f82011690508083019250505050505050612189565b905060008111611bca57600080fd5b6003811415611be4576706f05b59d3b20000915050611c0b565b6004811415611bfe57670429d069189e0000915050611c0b565b67016345785d8a00009150505b92915050565b611ca98282604051602401611c27929190614549565b6040516020818303038152906040527f4b5c4277000000000000000000000000000000000000000000000000000000007bffffffffffffffffffffffffffffffffffffffffffffffffffffffff19166020820180517bffffffffffffffffffffffffffffffffffffffffffffffffffffffff8381831617835250505050612bea565b5050565b60007f01ffc9a7000000000000000000000000000000000000000000000000000000007bffffffffffffffffffffffffffffffffffffffffffffffffffffffff1916827bffffffffffffffffffffffffffffffffffffffffffffffffffffffff1916149050919050565b60008073ffffffffffffffffffffffffffffffffffffffff166002600084815260200190815260200160002060009054906101000a900473ffffffffffffffffffffffffffffffffffffffff1673ffffffffffffffffffffffffffffffffffffffff1614159050919050565b600033905090565b816004600083815260200190815260200160002060006101000a81548173ffffffffffffffffffffffffffffffffffffffff021916908373ffffffffffffffffffffffffffffffffffffffff160217905550808273ffffffffffffffffffffffffffffffffffffffff16611dfe83610e1c565b73ffffffffffffffffffffffffffffffffffffffff167f8c5be1e5ebec7d5bd14f71427d1e84f3dd0314c0f7b2291e5b200ac8c7c3b92560405160405180910390a45050565b6000611e4f82611d17565b611e8e576040517f08c379a0000000000000000000000000000000000000000000000000000000008152600401611e85906145f2565b60405180910390fd5b6000611e9983610e1c565b90508073ffffffffffffffffffffffffffffffffffffffff168473ffffffffffffffffffffffffffffffffffffffff161480611f0857508373ffffffffffffffffffffffffffffffffffffffff16611ef084610859565b73ffffffffffffffffffffffffffffffffffffffff16145b80611f195750611f18818561143a565b5b91505092915050565b8273ffffffffffffffffffffffffffffffffffffffff16611f4282610e1c565b73ffffffffffffffffffffffffffffffffffffffff1614611f98576040517f08c379a0000000000000000000000000000000000000000000000000000000008152600401611f8f90614684565b60405180910390fd5b600073ffffffffffffffffffffffffffffffffffffffff168273ffffffffffffffffffffffffffffffffffffffff161415612008576040517f08c379a0000000000000000000000000000000000000000000000000000000008152600401611fff90614716565b60405180910390fd5b612013838383612c13565b61201e600082611d8b565b6001600360008573ffffffffffffffffffffffffffffffffffffffff1673ffffffffffffffffffffffffffffffffffffffff168152602001908152602001600020600082825461206e9190614736565b925050819055506001600360008473ffffffffffffffffffffffffffffffffffffffff1673ffffffffffffffffffffffffffffffffffffffff16815260200190815260200160002060008282546120c5919061476a565b92505081905550816002600083815260200190815260200160002060006101000a81548173ffffffffffffffffffffffffffffffffffffffff021916908373ffffffffffffffffffffffffffffffffffffffff160217905550808273ffffffffffffffffffffffffffffffffffffffff168473ffffffffffffffffffffffffffffffffffffffff167fddf252ad1be2c89b69c2b068fc378daa952ba7f163c4a11628f55a4df523b3ef60405160405180910390a4612184838383612c18565b505050565b60008060008084519050600092505b808210156123335760008583815181106121b5576121b46144a2565b5b602001015160f81c60f81b9050608060f81b817effffffffffffffffffffffffffffffffffffffffffffffffffffffffffffff19161015612204576001836121fd919061476a565b925061231f565b60e060f81b817effffffffffffffffffffffffffffffffffffffffffffffffffffffffffffff191610156122465760028361223f919061476a565b925061231e565b60f060f81b817effffffffffffffffffffffffffffffffffffffffffffffffffffffffffffff1916101561228857600383612281919061476a565b925061231d565b60f8801b817effffffffffffffffffffffffffffffffffffffffffffffffffffffffffffff191610156122c9576004836122c2919061476a565b925061231c565b60fc60f81b817effffffffffffffffffffffffffffffffffffffffffffffffffffffffffffff1916101561230b57600583612304919061476a565b925061231b565b600683612318919061476a565b92505b5b5b5b5b50828061232b90614500565b935050612198565b829350505050919050565b8173ffffffffffffffffffffffffffffffffffffffff168373ffffffffffffffffffffffffffffffffffffffff1614156123ad576040517f08c379a00000000000000000000000000000000000000000000000000000000081526004016123a49061480c565b60405180910390fd5b80600560008573ffffffffffffffffffffffffffffffffffffffff1673ffffffffffffffffffffffffffffffffffffffff16815260200190815260200160002060008473ffffffffffffffffffffffffffffffffffffffff1673ffffffffffffffffffffffffffffffffffffffff16815260200190815260200160002060006101000a81548160ff0219169083151502179055508173ffffffffffffffffffffffffffffffffffffffff168373ffffffffffffffffffffffffffffffffffffffff167f17307eab39ab6107e8899845ad3d59bd9653f200f220920489ca2b5937696c318360405161249e91906131da565b60405180910390a3505050565b6124b6848484611f22565b6124c284848484612c1d565b612501576040517f08c379a00000000000000000000000000000000000000000000000000000000081526004016124f89061489e565b60405180910390fd5b50505050565b606060405180602001604052806000815250905090565b606061252982611d17565b612568576040517f08c379a000000000000000000000000000000000000000000000000000000000815260040161255f90614930565b60405180910390fd5b6000612572612507565b9050600081511161259257604051806020016040528060008152506125bd565b8061259c846125d3565b6040516020016125ad929190613ff6565b6040516020818303038152906040525b915050919050565b600081600001549050919050565b6060600082141561261b576040518060400160405280600181526020017f3000000000000000000000000000000000000000000000000000000000000000815250905061272f565b600082905060005b6000821461264d57808061263690614500565b915050600a82612646919061497f565b9150612623565b60008167ffffffffffffffff811115612669576126686134e5565b5b6040519080825280601f01601f19166020018201604052801561269b5781602001600182028036833780820191505090505b5090505b60008514612728576001826126b49190614736565b9150600a856126c391906149b0565b60306126cf919061476a565b60f81b8183815181106126e5576126e46144a2565b5b60200101907effffffffffffffffffffffffffffffffffffffffffffffffffffffffffffff1916908160001a905350600a85612721919061497f565b945061269f565b8093505050505b919050565b6127d08484848460405160240161274e94939291906149e1565b6040516020818303038152906040527f9fd009f5000000000000000000000000000000000000000000000000000000007bffffffffffffffffffffffffffffffffffffffffffffffffffffffff19166020820180517bffffffffffffffffffffffffffffffffffffffffffffffffffffffff8381831617835250505050612bea565b50505050565b606060008251905060008114156127ff5760405180602001604052806000815250915050612969565b60006003600283612810919061476a565b61281a919061497f565b60046128269190614a3b565b90506000602082612837919061476a565b67ffffffffffffffff8111156128505761284f6134e5565b5b6040519080825280601f01601f1916602001820160405280156128825781602001600182028036833780820191505090505b5090506000604051806060016040528060408152602001614dfb604091399050600181016020830160005b868110156129265760038101905062ffffff818a015116603f8160121c168401518060081b905060ff603f83600c1c1686015116810190508060081b905060ff603f8360061c1686015116810190508060081b905060ff603f831686015116810190508060e01b905080845260048401935050506128ad565b50600386066001811461294057600281146129505761295b565b613d3d60f01b600283035261295b565b603d60f81b60018303525b508484525050819450505050505b919050565b612a0481604051602401612982919061328e565b6040516020818303038152906040527f41304fac000000000000000000000000000000000000000000000000000000007bffffffffffffffffffffffffffffffffffffffffffffffffffffffff19166020820180517bffffffffffffffffffffffffffffffffffffffffffffffffffffffff8381831617835250505050612bea565b50565b612a21828260405180602001604052806000815250612da5565b5050565b612a2e82611d17565b612a6d576040517f08c379a0000000000000000000000000000000000000000000000000000000008152600401612a6490614b07565b60405180910390fd5b80600660008481526020019081526020016000209080519060200190612a94929190613083565b505050565b612b318282604051602401612aaf929190614b27565b6040516020818303038152906040527f319af333000000000000000000000000000000000000000000000000000000007bffffffffffffffffffffffffffffffffffffffffffffffffffffffff19166020820180517bffffffffffffffffffffffffffffffffffffffffffffffffffffffff8381831617835250505050612bea565b5050565b6001816000016000828254019250508190555050565b612be5838383604051602401612b6393929190614b57565b6040516020818303038152906040527fa3f5c739000000000000000000000000000000000000000000000000000000007bffffffffffffffffffffffffffffffffffffffffffffffffffffffff19166020820180517bffffffffffffffffffffffffffffffffffffffffffffffffffffffff8381831617835250505050612bea565b505050565b60008151905060006a636f6e736f6c652e6c6f679050602083016000808483855afa5050505050565b505050565b505050565b6000612c3e8473ffffffffffffffffffffffffffffffffffffffff16612e00565b15612d98578373ffffffffffffffffffffffffffffffffffffffff1663150b7a02612c67611d83565b8786866040518563ffffffff1660e01b8152600401612c899493929190614bf1565b6020604051808303816000875af1925050508015612cc557506040513d601f19601f82011682018060405250810190612cc29190614c52565b60015b612d48573d8060008114612cf5576040519150601f19603f3d011682016040523d82523d6000602084013e612cfa565b606091505b50600081511415612d40576040517f08c379a0000000000000000000000000000000000000000000000000000000008152600401612d379061489e565b60405180910390fd5b805181602001fd5b63150b7a0260e01b7bffffffffffffffffffffffffffffffffffffffffffffffffffffffff1916817bffffffffffffffffffffffffffffffffffffffffffffffffffffffff191614915050612d9d565b600190505b949350505050565b612daf8383612e23565b612dbc6000848484612c1d565b612dfb576040517f08c379a0000000000000000000000000000000000000000000000000000000008152600401612df29061489e565b60405180910390fd5b505050565b6000808273ffffffffffffffffffffffffffffffffffffffff163b119050919050565b600073ffffffffffffffffffffffffffffffffffffffff168273ffffffffffffffffffffffffffffffffffffffff161415612e93576040517f08c379a0000000000000000000000000000000000000000000000000000000008152600401612e8a90614ccb565b60405180910390fd5b612e9c81611d17565b15612edc576040517f08c379a0000000000000000000000000000000000000000000000000000000008152600401612ed390614d37565b60405180910390fd5b612ee860008383612c13565b6001600360008473ffffffffffffffffffffffffffffffffffffffff1673ffffffffffffffffffffffffffffffffffffffff1681526020019081526020016000206000828254612f38919061476a565b92505081905550816002600083815260200190815260200160002060006101000a81548173ffffffffffffffffffffffffffffffffffffffff021916908373ffffffffffffffffffffffffffffffffffffffff160217905550808273ffffffffffffffffffffffffffffffffffffffff16600073ffffffffffffffffffffffffffffffffffffffff167fddf252ad1be2c89b69c2b068fc378daa952ba7f163c4a11628f55a4df523b3ef60405160405180910390a4612ff960008383612c18565b5050565b82805461300990613a9a565b90600052602060002090601f01602090048101928261302b5760008555613072565b82601f1061304457803560ff1916838001178555613072565b82800160010185558215613072579182015b82811115613071578235825591602001919060010190613056565b5b50905061307f9190613109565b5090565b82805461308f90613a9a565b90600052602060002090601f0160209004810192826130b157600085556130f8565b82601f106130ca57805160ff19168380011785556130f8565b828001600101855582156130f8579182015b828111156130f75782518255916020019190600101906130dc565b5b5090506131059190613109565b5090565b5b8082111561312257600081600090555060010161310a565b5090565b6000604051905090565b600080fd5b600080fd5b60007fffffffff0000000000000000000000000000000000000000000000000000000082169050919050565b61316f8161313a565b811461317a57600080fd5b50565b60008135905061318c81613166565b92915050565b6000602082840312156131a8576131a7613130565b5b60006131b68482850161317d565b91505092915050565b60008115159050919050565b6131d4816131bf565b82525050565b60006020820190506131ef60008301846131cb565b92915050565b600081519050919050565b600082825260208201905092915050565b60005b8381101561322f578082015181840152602081019050613214565b8381111561323e576000848401525b50505050565b6000601f19601f8301169050919050565b6000613260826131f5565b61326a8185613200565b935061327a818560208601613211565b61328381613244565b840191505092915050565b600060208201905081810360008301526132a88184613255565b905092915050565b6000819050919050565b6132c3816132b0565b81146132ce57600080fd5b50565b6000813590506132e0816132ba565b92915050565b6000602082840312156132fc576132fb613130565b5b600061330a848285016132d1565b91505092915050565b600073ffffffffffffffffffffffffffffffffffffffff82169050919050565b600061333e82613313565b9050919050565b61334e81613333565b82525050565b60006020820190506133696000830184613345565b92915050565b61337881613333565b811461338357600080fd5b50565b6000813590506133958161336f565b92915050565b600080604083850312156133b2576133b1613130565b5b60006133c085828601613386565b92505060206133d1858286016132d1565b9150509250929050565b600080fd5b600080fd5b600080fd5b60008083601f840112613400576133ff6133db565b5b8235905067ffffffffffffffff81111561341d5761341c6133e0565b5b602083019150836001820283011115613439576134386133e5565b5b9250929050565b6000806020838503121561345757613456613130565b5b600083013567ffffffffffffffff81111561347557613474613135565b5b613481858286016133ea565b92509250509250929050565b6000806000606084860312156134a6576134a5613130565b5b60006134b486828701613386565b93505060206134c586828701613386565b92505060406134d6868287016132d1565b9150509250925092565b600080fd5b7f4e487b7100000000000000000000000000000000000000000000000000000000600052604160045260246000fd5b61351d82613244565b810181811067ffffffffffffffff8211171561353c5761353b6134e5565b5b80604052505050565b600061354f613126565b905061355b8282613514565b919050565b600067ffffffffffffffff82111561357b5761357a6134e5565b5b61358482613244565b9050602081019050919050565b82818337600083830152505050565b60006135b36135ae84613560565b613545565b9050828152602081018484840111156135cf576135ce6134e0565b5b6135da848285613591565b509392505050565b600082601f8301126135f7576135f66133db565b5b81356136078482602086016135a0565b91505092915050565b60006020828403121561362657613625613130565b5b600082013567ffffffffffffffff81111561364457613643613135565b5b613650848285016135e2565b91505092915050565b60006020828403121561366f5761366e613130565b5b600061367d84828501613386565b91505092915050565b61368f816132b0565b82525050565b60006020820190506136aa6000830184613686565b92915050565b60006136bb82613313565b9050919050565b6136cb816136b0565b82525050565b60006020820190506136e660008301846136c2565b92915050565b6136f5816131bf565b811461370057600080fd5b50565b600081359050613712816136ec565b92915050565b6000806040838503121561372f5761372e613130565b5b600061373d85828601613386565b925050602061374e85828601613703565b9150509250929050565b600067ffffffffffffffff821115613773576137726134e5565b5b61377c82613244565b9050602081019050919050565b600061379c61379784613758565b613545565b9050828152602081018484840111156137b8576137b76134e0565b5b6137c3848285613591565b509392505050565b600082601f8301126137e0576137df6133db565b5b81356137f0848260208601613789565b91505092915050565b6000806000806080858703121561381357613812613130565b5b600061382187828801613386565b945050602061383287828801613386565b9350506040613843878288016132d1565b925050606085013567ffffffffffffffff81111561386457613863613135565b5b613870878288016137cb565b91505092959194509250565b6000806000806040858703121561389657613895613130565b5b600085013567ffffffffffffffff8111156138b4576138b3613135565b5b6138c0878288016133ea565b9450945050602085013567ffffffffffffffff8111156138e3576138e2613135565b5b6138ef878288016133ea565b925092505092959194509250565b6000806040838503121561391457613913613130565b5b600061392285828601613386565b925050602061393385828601613386565b9150509250929050565b600081519050919050565b600082825260208201905092915050565b6000819050602082019050919050565b600082825260208201905092915050565b6000613985826131f5565b61398f8185613969565b935061399f818560208601613211565b6139a881613244565b840191505092915050565b60006139bf838361397a565b905092915050565b6000602082019050919050565b60006139df8261393d565b6139e98185613948565b9350836020820285016139fb85613959565b8060005b85811015613a375784840389528151613a1885826139b3565b9450613a23836139c7565b925060208a019950506001810190506139ff565b50829750879550505050505092915050565b60006020820190508181036000830152613a6381846139d4565b905092915050565b7f4e487b7100000000000000000000000000000000000000000000000000000000600052602260045260246000fd5b60006002820490506001821680613ab257607f821691505b60208210811415613ac657613ac5613a6b565b5b50919050565b7f4552433732313a20617070726f76656420717565727920666f72206e6f6e657860008201527f697374656e7420746f6b656e0000000000000000000000000000000000000000602082015250565b6000613b28602c83613200565b9150613b3382613acc565b604082019050919050565b60006020820190508181036000830152613b5781613b1b565b9050919050565b7f4552433732313a20617070726f76616c20746f2063757272656e74206f776e6560008201527f7200000000000000000000000000000000000000000000000000000000000000602082015250565b6000613bba602183613200565b9150613bc582613b5e565b604082019050919050565b60006020820190508181036000830152613be981613bad565b9050919050565b7f4552433732313a20617070726f76652063616c6c6572206973206e6f74206f7760008201527f6e6572206e6f7220617070726f76656420666f7220616c6c0000000000000000602082015250565b6000613c4c603883613200565b9150613c5782613bf0565b604082019050919050565b60006020820190508181036000830152613c7b81613c3f565b9050919050565b600081905092915050565b6000613c998385613c82565b9350613ca6838584613591565b82840190509392505050565b6000613cbf828486613c8d565b91508190509392505050565b7f4552433732313a207472616e736665722063616c6c6572206973206e6f74206f60008201527f776e6572206e6f7220617070726f766564000000000000000000000000000000602082015250565b6000613d27603183613200565b9150613d3282613ccb565b604082019050919050565b60006020820190508181036000830152613d5681613d1a565b9050919050565b600081905092915050565b50565b6000613d78600083613d5d565b9150613d8382613d68565b600082019050919050565b6000613d9982613d6b565b9150819050919050565b7f4661696c656420746f207769746864726177204d617469630000000000000000600082015250565b6000613dd9601883613200565b9150613de482613da3565b602082019050919050565b60006020820190508181036000830152613e0881613dcc565b9050919050565b7f4552433732313a206f776e657220717565727920666f72206e6f6e657869737460008201527f656e7420746f6b656e0000000000000000000000000000000000000000000000602082015250565b6000613e6b602983613200565b9150613e7682613e0f565b604082019050919050565b60006020820190508181036000830152613e9a81613e5e565b9050919050565b7f4552433732313a2062616c616e636520717565727920666f7220746865207a6560008201527f726f206164647265737300000000000000000000000000000000000000000000602082015250565b6000613efd602a83613200565b9150613f0882613ea1565b604082019050919050565b60006020820190508181036000830152613f2c81613ef0565b9050919050565b7f45524337323155524953746f726167653a2055524920717565727920666f722060008201527f6e6f6e6578697374656e7420746f6b656e000000000000000000000000000000602082015250565b6000613f8f603183613200565b9150613f9a82613f33565b604082019050919050565b60006020820190508181036000830152613fbe81613f82565b9050919050565b6000613fd0826131f5565b613fda8185613c82565b9350613fea818560208601613211565b80840191505092915050565b60006140028285613fc5565b915061400e8284613fc5565b91508190509392505050565b60006140268385613200565b9350614033838584613591565b61403c83613244565b840190509392505050565b6000602082019050818103600083015261406281848661401a565b90509392505050565b60008151905061407a816132ba565b92915050565b60006020828403121561409657614095613130565b5b60006140a48482850161406b565b91505092915050565b7f4e6f7420656e6f756768204d6174696320706169640000000000000000000000600082015250565b60006140e3601583613200565b91506140ee826140ad565b602082019050919050565b60006020820190508181036000830152614112816140d6565b9050919050565b7f2e00000000000000000000000000000000000000000000000000000000000000600082015250565b600061414f600183613c82565b915061415a82614119565b600182019050919050565b60008190508160005260206000209050919050565b6000815461418781613a9a565b6141918186613c82565b945060018216600081146141ac57600181146141bd576141f0565b60ff198316865281860193506141f0565b6141c685614165565b60005b838110156141e8578154818901526001820191506020810190506141c9565b838801955050505b50505092915050565b6000614206828587613c8d565b915061421182614142565b915061421d828461417a565b9150819050949350505050565b6000614236828661417a565b91506142428285613fc5565b915061424e828461417a565b9150819050949350505050565b7f7b226e616d65223a202200000000000000000000000000000000000000000000600082015250565b6000614291600a83613c82565b915061429c8261425b565b600a82019050919050565b7f222c20226465736372697074696f6e223a20224120646f6d61696e206f6e207460008201527f6865204e696e6a61206e616d652073657276696365222c2022696d616765223a60208201527f2022646174613a696d6167652f7376672b786d6c3b6261736536342c00000000604082015250565b6000614329605c83613c82565b9150614334826142a7565b605c82019050919050565b7f222c226c656e677468223a220000000000000000000000000000000000000000600082015250565b6000614375600c83613c82565b91506143808261433f565b600c82019050919050565b7f227d000000000000000000000000000000000000000000000000000000000000600082015250565b60006143c1600283613c82565b91506143cc8261438b565b600282019050919050565b60006143e282614284565b91506143ee8286613fc5565b91506143f98261431c565b91506144058285613fc5565b915061441082614368565b915061441c8284613fc5565b9150614427826143b4565b9150819050949350505050565b7f646174613a6170706c69636174696f6e2f6a736f6e3b6261736536342c000000600082015250565b600061446a601d83613c82565b915061447582614434565b601d82019050919050565b600061448b8261445d565b91506144978284613fc5565b915081905092915050565b7f4e487b7100000000000000000000000000000000000000000000000000000000600052603260045260246000fd5b7f4e487b7100000000000000000000000000000000000000000000000000000000600052601160045260246000fd5b600061450b826132b0565b91507fffffffffffffffffffffffffffffffffffffffffffffffffffffffffffffffff82141561453e5761453d6144d1565b5b600182019050919050565b600060408201905081810360008301526145638185613255565b905081810360208301526145778184613255565b90509392505050565b7f4552433732313a206f70657261746f7220717565727920666f72206e6f6e657860008201527f697374656e7420746f6b656e0000000000000000000000000000000000000000602082015250565b60006145dc602c83613200565b91506145e782614580565b604082019050919050565b6000602082019050818103600083015261460b816145cf565b9050919050565b7f4552433732313a207472616e736665722066726f6d20696e636f72726563742060008201527f6f776e6572000000000000000000000000000000000000000000000000000000602082015250565b600061466e602583613200565b915061467982614612565b604082019050919050565b6000602082019050818103600083015261469d81614661565b9050919050565b7f4552433732313a207472616e7366657220746f20746865207a65726f2061646460008201527f7265737300000000000000000000000000000000000000000000000000000000602082015250565b6000614700602483613200565b915061470b826146a4565b604082019050919050565b6000602082019050818103600083015261472f816146f3565b9050919050565b6000614741826132b0565b915061474c836132b0565b92508282101561475f5761475e6144d1565b5b828203905092915050565b6000614775826132b0565b9150614780836132b0565b9250827fffffffffffffffffffffffffffffffffffffffffffffffffffffffffffffffff038211156147b5576147b46144d1565b5b828201905092915050565b7f4552433732313a20617070726f766520746f2063616c6c657200000000000000600082015250565b60006147f6601983613200565b9150614801826147c0565b602082019050919050565b60006020820190508181036000830152614825816147e9565b9050919050565b7f4552433732313a207472616e7366657220746f206e6f6e20455243373231526560008201527f63656976657220696d706c656d656e7465720000000000000000000000000000602082015250565b6000614888603283613200565b91506148938261482c565b604082019050919050565b600060208201905081810360008301526148b78161487b565b9050919050565b7f4552433732314d657461646174613a2055524920717565727920666f72206e6f60008201527f6e6578697374656e7420746f6b656e0000000000000000000000000000000000602082015250565b600061491a602f83613200565b9150614925826148be565b604082019050919050565b600060208201905081810360008301526149498161490d565b9050919050565b7f4e487b7100000000000000000000000000000000000000000000000000000000600052601260045260246000fd5b600061498a826132b0565b9150614995836132b0565b9250826149a5576149a4614950565b5b828204905092915050565b60006149bb826132b0565b91506149c6836132b0565b9250826149d6576149d5614950565b5b828206905092915050565b600060808201905081810360008301526149fb8187613255565b90508181036020830152614a0f8186613255565b90508181036040830152614a238185613255565b9050614a326060830184613686565b95945050505050565b6000614a46826132b0565b9150614a51836132b0565b9250817fffffffffffffffffffffffffffffffffffffffffffffffffffffffffffffffff0483118215151615614a8a57614a896144d1565b5b828202905092915050565b7f45524337323155524953746f726167653a2055524920736574206f66206e6f6e60008201527f6578697374656e7420746f6b656e000000000000000000000000000000000000602082015250565b6000614af1602e83613200565b9150614afc82614a95565b604082019050919050565b60006020820190508181036000830152614b2081614ae4565b9050919050565b60006040820190508181036000830152614b418185613255565b9050614b506020830184613345565b9392505050565b60006060820190508181036000830152614b718186613255565b9050614b806020830185613686565b8181036040830152614b928184613255565b9050949350505050565b600081519050919050565b600082825260208201905092915050565b6000614bc382614b9c565b614bcd8185614ba7565b9350614bdd818560208601613211565b614be681613244565b840191505092915050565b6000608082019050614c066000830187613345565b614c136020830186613345565b614c206040830185613686565b8181036060830152614c328184614bb8565b905095945050505050565b600081519050614c4c81613166565b92915050565b600060208284031215614c6857614c67613130565b5b6000614c7684828501614c3d565b91505092915050565b7f4552433732313a206d696e7420746f20746865207a65726f2061646472657373600082015250565b6000614cb5602083613200565b9150614cc082614c7f565b602082019050919050565b60006020820190508181036000830152614ce481614ca8565b9050919050565b7f4552433732313a20746f6b656e20616c7265616479206d696e74656400000000600082015250565b6000614d21601c83613200565b9150614d2c82614ceb565b602082019050919050565b60006020820190508181036000830152614d5081614d14565b905091905056fe0a2d2d2d2d2d2d2d2d2d2d2d2d2d2d2d2d2d2d2d2d2d2d2d2d2d2d2d2d2d2d2d2d2d2d2d2d2d2d2d2d2d2d2d2d2d2d2d2d2d2d2d2d2d2d2d2d5265676973746572696e672025732e2573206f6e2074686520636f6e7472616374207769746820746f6b656e49442025642d2d2d2d2d2d2d2d2d2d2d2d2d2d2d2d2d2d2d2d2d2d2d2d2d2d2d2d2d2d2d2d2d2d2d2d2d2d2d2d2d2d2d2d2d2d2d2d2d2d2d2d2d2d2d2d0a4142434445464748494a4b4c4d4e4f505152535455565758595a6162636465666768696a6b6c6d6e6f707172737475767778797a303132333435363738392b2fa264697066735822122058314f49ee7eb863f6168df34776d143e66105baea07fa8dac9b31aa8f97516264736f6c634300080a00333c73766720786d6c6e733d22687474703a2f2f7777772e77332e6f72672f323030302f737667222077696474683d2232373022206865696768743d22323730222066696c6c3d226e6f6e65223e3c706174682066696c6c3d2275726c282342292220643d224d302030683237307632373048307a222f3e3c646566733e3c66696c7465722069643d22412220636f6c6f722d696e746572706f6c6174696f6e2d66696c746572733d2273524742222066696c746572556e6974733d227573657253706163654f6e55736522206865696768743d22323730222077696474683d22323730223e3c666544726f70536861646f772064783d2230222064793d22312220737464446576696174696f6e3d22322220666c6f6f642d6f7061636974793d222e323235222077696474683d223230302522206865696768743d2232303025222f3e3c2f66696c7465723e3c2f646566733e3c7061746820643d224d37322e3836332034322e393439632d2e3636382d2e3338372d312e3432362d2e35392d322e3139372d2e3539732d312e3532392e3230342d322e3139372e35396c2d31302e30383120362e3033322d362e383520332e3933342d31302e30383120362e303332632d2e3636382e3338372d312e3432362e35392d322e3139372e3539732d312e3532392d2e3230342d322e3139372d2e35396c2d382e3031332d342e37323161342e353220342e35322030203020312d312e3538392d312e363136632d2e3338342d2e3636352d2e3539342d312e3431382d2e3630382d322e313837762d392e3331632d2e3031332d2e3737352e3138352d312e3533382e3537322d322e32303861342e323520342e323520302030203120312e3632352d312e3539356c372e3838342d342e3539632e3636382d2e33383720312e3432362d2e353920322e3139372d2e353973312e3532392e32303420322e3139372e35396c372e38383420342e353961342e353220342e353220302030203120312e35383920312e363136632e3338342e3636352e35393420312e3431382e36303820322e31383776362e3033326c362e38352d342e303635762d362e303332632e3031332d2e3737352d2e3138352d312e3533382d2e3537322d322e32303861342e323520342e32352030203020302d312e3632352d312e3539354c34312e3435362032342e3539632d2e3636382d2e3338372d312e3432362d2e35392d322e3139372d2e3539732d312e3532392e3230342d322e3139372e35396c2d31342e38363420382e36353561342e323520342e32352030203020302d312e36323520312e353935632d2e3338372e36372d2e35383520312e3433342d2e35373220322e3230387631372e343431632d2e3031332e3737352e31383520312e3533382e35373220322e32303861342e323520342e323520302030203020312e36323520312e3539356c31342e38363420382e363535632e3636382e33383720312e3432362e353920322e3139372e353973312e3532392d2e32303420322e3139372d2e35396c31302e3038312d352e39303120362e38352d342e3036352031302e3038312d352e393031632e3636382d2e33383720312e3432362d2e353920322e3139372d2e353973312e3532392e32303420322e3139372e35396c372e38383420342e353961342e353220342e353220302030203120312e35383920312e363136632e3338342e3636352e35393420312e3431382e36303820322e31383776392e333131632e3031332e3737352d2e31383520312e3533382d2e35373220322e32303861342e323520342e32352030203020312d312e36323520312e3539356c2d372e38383420342e373231632d2e3636382e3338372d312e3432362e35392d322e3139372e3539732d312e3532392d2e3230342d322e3139372d2e35396c2d372e3838342d342e353961342e353220342e35322030203020312d312e3538392d312e363136632d2e3338352d2e3636352d2e3539342d312e3431382d2e3630382d322e313837762d362e3033326c2d362e383520342e30363576362e303332632d2e3031332e3737352e31383520312e3533382e35373220322e32303861342e323520342e323520302030203020312e36323520312e3539356c31342e38363420382e363535632e3636382e33383720312e3432362e353920322e3139372e353973312e3532392d2e32303420322e3139372d2e35396c31342e3836342d382e363535632e3635372d2e33393420312e3230342d2e393520312e3538392d312e363136732e3539342d312e3431382e3630392d322e3138375635352e353338632e3031332d2e3737352d2e3138352d312e3533382d2e3537322d322e32303861342e323520342e32352030203020302d312e3632352d312e3539356c2d31342e3939332d382e3738367a222066696c6c3d2223666666222f3e3c646566733e3c6c696e6561724772616469656e742069643d2242222078313d2230222079313d2230222078323d22323730222079323d2232373022206772616469656e74556e6974733d227573657253706163654f6e557365223e3c73746f702073746f702d636f6c6f723d2223636235656565222f3e3c73746f70206f66667365743d2231222073746f702d636f6c6f723d2223306364376534222073746f702d6f7061636974793d222e3939222f3e3c2f6c696e6561724772616469656e743e3c2f646566733e3c7465787420783d2233322e352220793d223233312220666f6e742d73697a653d223237222066696c6c3d2223666666222066696c7465723d2275726c282341292220666f6e742d66616d696c793d22506c7573204a616b617274612053616e732c44656a6156752053616e732c4e6f746f20436f6c6f7220456d6f6a692c4170706c6520436f6c6f7220456d6f6a692c73616e732d73657269662220666f6e742d7765696768743d22626f6c64223e",
  "linkReferences": {},
  "deployedLinkReferences": {}
}